{
  "contractName": "TokenFactory",
  "abi": [
    {
      "anonymous": false,
      "inputs": [
        {
          "indexed": false,
          "internalType": "address",
          "name": "",
          "type": "address"
        },
        {
          "indexed": false,
          "internalType": "string",
          "name": "",
          "type": "string"
        },
        {
          "indexed": false,
          "internalType": "string[3]",
          "name": "",
          "type": "string[3]"
        }
      ],
      "name": "CreateToken",
      "type": "event"
    },
    {
      "inputs": [
        {
          "internalType": "string",
          "name": "name",
          "type": "string"
        },
        {
          "internalType": "string",
          "name": "symbol",
          "type": "string"
        },
        {
          "internalType": "uint256",
          "name": "totalSupply",
          "type": "uint256"
        },
        {
          "internalType": "string",
          "name": "_docId",
          "type": "string"
        },
        {
          "internalType": "bytes32",
          "name": "_docIdHash",
          "type": "bytes32"
        },
        {
          "internalType": "string",
          "name": "_creatorDid",
          "type": "string"
        },
        {
          "internalType": "string[3]",
          "name": "_witnessDids",
          "type": "string[3]"
        },
        {
          "internalType": "bytes[3]",
          "name": "_witnessSigs",
          "type": "bytes[3]"
        },
        {
          "internalType": "address[3]",
          "name": "_witnessAddresses",
          "type": "address[3]"
        }
      ],
      "name": "createToken",
      "outputs": [],
      "stateMutability": "nonpayable",
      "type": "function"
    },
    {
      "inputs": [],
      "name": "tokensCount",
      "outputs": [
        {
          "internalType": "uint256",
          "name": "",
          "type": "uint256"
        }
      ],
      "stateMutability": "view",
      "type": "function",
      "constant": true
    }
  ],
  "bytecode": "0x608060405234801561001057600080fd5b50613d36806100206000396000f3fe60806040523480156200001157600080fd5b50600436106200003a5760003560e01c8063a64ed8ba146200003f578063eb2e904a1462000061575b600080fd5b6200004962000081565b60405162000058919062000994565b60405180910390f35b6200007f60048036038101906200007991906200045f565b6200008d565b005b60008080549050905090565b6000898989898989898989604051620000a69062000186565b620000ba99989796959493929190620008cb565b604051809103906000f080158015620000d7573d6000803e3d6000fd5b5090506000819080600181540180825580915050600190039060005260206000200160009091909190916101000a81548173ffffffffffffffffffffffffffffffffffffffff021916908373ffffffffffffffffffffffffffffffffffffffff1602179055507f6ea1d608c11deed32000fb8f26371e62c3006edbd05f5805c2b607434e566dce818686604051620001729392919062000880565b60405180910390a150505050505050505050565b61304f8062000cb283390190565b6000620001ab620001a584620009e5565b620009b1565b90508082856020860282011115620001c257600080fd5b60005b85811015620001f65781620001db888262000342565b845260208401935060208301925050600181019050620001c5565b5050509392505050565b600062000217620002118462000a0e565b620009b1565b9050808260005b85811015620002525781358501620002378882620003ee565b8452602084019350602083019250506001810190506200021e565b5050509392505050565b6000620002736200026d8462000a37565b620009b1565b9050808260005b85811015620002ae57813585016200029388826200041b565b8452602084019350602083019250506001810190506200027a565b5050509392505050565b6000620002cf620002c98462000a60565b620009b1565b905082815260208101848484011115620002e857600080fd5b620002f584828562000bde565b509392505050565b6000620003146200030e8462000a93565b620009b1565b9050828152602081018484840111156200032d57600080fd5b6200033a84828562000bde565b509392505050565b600081359050620003538162000c63565b92915050565b600082601f8301126200036b57600080fd5b60036200037a84828562000194565b91505092915050565b600082601f8301126200039557600080fd5b6003620003a484828562000200565b91505092915050565b600082601f830112620003bf57600080fd5b6003620003ce8482856200025c565b91505092915050565b600081359050620003e88162000c7d565b92915050565b600082601f8301126200040057600080fd5b813562000412848260208601620002b8565b91505092915050565b600082601f8301126200042d57600080fd5b81356200043f848260208601620002fd565b91505092915050565b600081359050620004598162000c97565b92915050565b60008060008060008060008060006101608a8c0312156200047f57600080fd5b60008a013567ffffffffffffffff8111156200049a57600080fd5b620004a88c828d016200041b565b99505060208a013567ffffffffffffffff811115620004c657600080fd5b620004d48c828d016200041b565b9850506040620004e78c828d0162000448565b97505060608a013567ffffffffffffffff8111156200050557600080fd5b620005138c828d016200041b565b9650506080620005268c828d01620003d7565b95505060a08a013567ffffffffffffffff8111156200054457600080fd5b620005528c828d016200041b565b94505060c08a013567ffffffffffffffff8111156200057057600080fd5b6200057e8c828d01620003ad565b93505060e08a013567ffffffffffffffff8111156200059c57600080fd5b620005aa8c828d0162000383565b925050610100620005be8c828d0162000359565b9150509295985092959850929598565b6000620005dc838362000614565b60208301905092915050565b6000620005f68383620007ac565b905092915050565b60006200060c8383620007ed565b905092915050565b6200061f8162000b96565b82525050565b620006308162000b96565b82525050565b620006418162000ae4565b6200064d818462000b42565b92506200065a8262000ac6565b8060005b8381101562000691578151620006758782620005ce565b9650620006828362000b1b565b9250506001810190506200065e565b505050505050565b6000620006a68262000aef565b620006b2818562000b4d565b935083602082028501620006c68562000ad0565b8060005b85811015620007085784840389528151620006e68582620005e8565b9450620006f38362000b28565b925060208a01995050600181019050620006ca565b50829750879550505050505092915050565b6000620007278262000afa565b62000733818562000b58565b935083602082028501620007478562000ada565b8060005b85811015620007895784840389528151620007678582620005fe565b9450620007748362000b35565b925060208a019950506001810190506200074b565b50829750879550505050505092915050565b620007a68162000baa565b82525050565b6000620007b98262000b05565b620007c5818562000b63565b9350620007d781856020860162000bed565b620007e28162000c52565b840191505092915050565b6000620007fa8262000b10565b62000806818562000b74565b93506200081881856020860162000bed565b620008238162000c52565b840191505092915050565b60006200083b8262000b10565b62000847818562000b85565b93506200085981856020860162000bed565b620008648162000c52565b840191505092915050565b6200087a8162000bd4565b82525050565b600060608201905062000897600083018662000625565b8181036020830152620008ab81856200082e565b90508181036040830152620008c181846200071a565b9050949350505050565b6000610160820190508181036000830152620008e8818c6200082e565b90508181036020830152620008fe818b6200082e565b90506200090f604083018a6200086f565b81810360608301526200092381896200082e565b90506200093460808301886200079b565b81810360a08301526200094881876200082e565b905081810360c08301526200095e81866200071a565b905081810360e083015262000974818562000699565b90506200098661010083018462000636565b9a9950505050505050505050565b6000602082019050620009ab60008301846200086f565b92915050565b6000604051905081810181811067ffffffffffffffff82111715620009db57620009da62000c23565b5b8060405250919050565b600067ffffffffffffffff82111562000a035762000a0262000c23565b5b602082029050919050565b600067ffffffffffffffff82111562000a2c5762000a2b62000c23565b5b602082029050919050565b600067ffffffffffffffff82111562000a555762000a5462000c23565b5b602082029050919050565b600067ffffffffffffffff82111562000a7e5762000a7d62000c23565b5b601f19601f8301169050602081019050919050565b600067ffffffffffffffff82111562000ab15762000ab062000c23565b5b601f19601f8301169050602081019050919050565b6000819050919050565b6000819050919050565b6000819050919050565b600060039050919050565b600060039050919050565b600060039050919050565b600081519050919050565b600081519050919050565b6000602082019050919050565b6000602082019050919050565b6000602082019050919050565b600081905092915050565b600081905092915050565b600081905092915050565b600082825260208201905092915050565b600082825260208201905092915050565b600082825260208201905092915050565b600062000ba38262000bb4565b9050919050565b6000819050919050565b600073ffffffffffffffffffffffffffffffffffffffff82169050919050565b6000819050919050565b82818337600083830152505050565b60005b8381101562000c0d57808201518184015260208101905062000bf0565b8381111562000c1d576000848401525b50505050565b7f4e487b7100000000000000000000000000000000000000000000000000000000600052604160045260246000fd5b6000601f19601f8301169050919050565b62000c6e8162000b96565b811462000c7a57600080fd5b50565b62000c888162000baa565b811462000c9457600080fd5b50565b62000ca28162000bd4565b811462000cae57600080fd5b5056fe60806040523480156200001157600080fd5b506040516200304f3803806200304f8339818101604052810190620000379190620009e8565b8888816003908051906020019062000051929190620005a5565b5080600490805190602001906200006a929190620005a5565b5050506200008185848484620000e860201b60201c565b856005908051906020019062000099929190620005a5565b508360069080519060200190620000b2929190620005a5565b50826007906003620000c692919062000636565b50620000d933886200021e60201b60201c565b50505050505050505062001205565b60005b6003811015620002175760006200014f84836003811062000135577f4e487b7100000000000000000000000000000000000000000000000000000000600052603260045260246000fd5b6020020151876200038360201b62000c711790919060201c565b90508282600381106200018b577f4e487b7100000000000000000000000000000000000000000000000000000000600052603260045260246000fd5b602002015173ffffffffffffffffffffffffffffffffffffffff168173ffffffffffffffffffffffffffffffffffffffff161462000200576040517f08c379a0000000000000000000000000000000000000000000000000000000008152600401620001f79062000df3565b60405180910390fd5b5080806200020e90620010dc565b915050620000eb565b5050505050565b600073ffffffffffffffffffffffffffffffffffffffff168273ffffffffffffffffffffffffffffffffffffffff16141562000291576040517f08c379a0000000000000000000000000000000000000000000000000000000008152600401620002889062000e59565b60405180910390fd5b620002a5600083836200040860201b60201c565b8060026000828254620002b9919062000fbe565b92505081905550806000808473ffffffffffffffffffffffffffffffffffffffff1673ffffffffffffffffffffffffffffffffffffffff168152602001908152602001600020600082825462000310919062000fbe565b925050819055508173ffffffffffffffffffffffffffffffffffffffff16600073ffffffffffffffffffffffffffffffffffffffff167fddf252ad1be2c89b69c2b068fc378daa952ba7f163c4a11628f55a4df523b3ef8360405162000377919062000e7b565b60405180910390a35050565b60006041825114620003cc576040517f08c379a0000000000000000000000000000000000000000000000000000000008152600401620003c39062000dd1565b60405180910390fd5b60008060006020850151925060408501519150606085015160001a9050620003fd868285856200040d60201b60201c565b935050505092915050565b505050565b60007f7fffffffffffffffffffffffffffffff5d576e7357a4501ddfe92f46681b20a08260001c111562000478576040517f08c379a00000000000000000000000000000000000000000000000000000000081526004016200046f9062000e15565b60405180910390fd5b601b8460ff1614806200048e5750601c8460ff16145b620004d0576040517f08c379a0000000000000000000000000000000000000000000000000000000008152600401620004c79062000e37565b60405180910390fd5b600060018686868660405160008152602001604052604051620004f7949392919062000d62565b6020604051602081039080840390855afa1580156200051a573d6000803e3d6000fd5b505050602060405103519050600073ffffffffffffffffffffffffffffffffffffffff168173ffffffffffffffffffffffffffffffffffffffff16141562000599576040517f08c379a0000000000000000000000000000000000000000000000000000000008152600401620005909062000daf565b60405180910390fd5b80915050949350505050565b828054620005b390620010a6565b90600052602060002090601f016020900481019282620005d7576000855562000623565b82601f10620005f257805160ff191683800117855562000623565b8280016001018555821562000623579182015b828111156200062257825182559160200191906001019062000605565b5b50905062000632919062000690565b5090565b82600381019282156200067d579160200282015b828111156200067c5782518290805190602001906200066b929190620005a5565b50916020019190600101906200064a565b5b5090506200068c9190620006af565b5090565b5b80821115620006ab57600081600090555060010162000691565b5090565b5b80821115620006d35760008181620006c99190620006d7565b50600101620006b0565b5090565b508054620006e590620010a6565b6000825580601f10620006f957506200071a565b601f01602090049060005260206000209081019062000719919062000690565b5b50565b6000620007346200072e8462000ecc565b62000e98565b905080828560208602820111156200074b57600080fd5b60005b858110156200077f5781620007648882620008cb565b8452602084019350602083019250506001810190506200074e565b5050509392505050565b6000620007a06200079a8462000ef5565b62000e98565b9050808260005b85811015620007db5781518501620007c0888262000977565b845260208401935060208301925050600181019050620007a7565b5050509392505050565b6000620007fc620007f68462000f1e565b62000e98565b9050808260005b858110156200083757815185016200081c8882620009a4565b84526020840193506020830192505060018101905062000803565b5050509392505050565b600062000858620008528462000f47565b62000e98565b9050828152602081018484840111156200087157600080fd5b6200087e84828562001070565b509392505050565b60006200089d620008978462000f7a565b62000e98565b905082815260208101848484011115620008b657600080fd5b620008c384828562001070565b509392505050565b600081519050620008dc81620011b7565b92915050565b600082601f830112620008f457600080fd5b6003620009038482856200071d565b91505092915050565b600082601f8301126200091e57600080fd5b60036200092d84828562000789565b91505092915050565b600082601f8301126200094857600080fd5b600362000957848285620007e5565b91505092915050565b6000815190506200097181620011d1565b92915050565b600082601f8301126200098957600080fd5b81516200099b84826020860162000841565b91505092915050565b600082601f830112620009b657600080fd5b8151620009c884826020860162000886565b91505092915050565b600081519050620009e281620011eb565b92915050565b60008060008060008060008060006101608a8c03121562000a0857600080fd5b60008a015167ffffffffffffffff81111562000a2357600080fd5b62000a318c828d01620009a4565b99505060208a015167ffffffffffffffff81111562000a4f57600080fd5b62000a5d8c828d01620009a4565b985050604062000a708c828d01620009d1565b97505060608a015167ffffffffffffffff81111562000a8e57600080fd5b62000a9c8c828d01620009a4565b965050608062000aaf8c828d0162000960565b95505060a08a015167ffffffffffffffff81111562000acd57600080fd5b62000adb8c828d01620009a4565b94505060c08a015167ffffffffffffffff81111562000af957600080fd5b62000b078c828d0162000936565b93505060e08a015167ffffffffffffffff81111562000b2557600080fd5b62000b338c828d016200090c565b92505061010062000b478c828d01620008e2565b9150509295985092959850929598565b62000b62816200102f565b82525050565b600062000b7760188362000fad565b91507f45434453413a20696e76616c6964207369676e617475726500000000000000006000830152602082019050919050565b600062000bb9601f8362000fad565b91507f45434453413a20696e76616c6964207369676e6174757265206c656e677468006000830152602082019050919050565b600062000bfb60118362000fad565b91507f496e76616c6964207369676e61747572650000000000000000000000000000006000830152602082019050919050565b600062000c3d60228362000fad565b91507f45434453413a20696e76616c6964207369676e6174757265202773272076616c60008301527f75650000000000000000000000000000000000000000000000000000000000006020830152604082019050919050565b600062000ca560228362000fad565b91507f45434453413a20696e76616c6964207369676e6174757265202776272076616c60008301527f75650000000000000000000000000000000000000000000000000000000000006020830152604082019050919050565b600062000d0d601f8362000fad565b91507f45524332303a206d696e7420746f20746865207a65726f2061646472657373006000830152602082019050919050565b62000d4b8162001059565b82525050565b62000d5c8162001063565b82525050565b600060808201905062000d79600083018762000b57565b62000d88602083018662000d51565b62000d97604083018562000b57565b62000da6606083018462000b57565b95945050505050565b6000602082019050818103600083015262000dca8162000b68565b9050919050565b6000602082019050818103600083015262000dec8162000baa565b9050919050565b6000602082019050818103600083015262000e0e8162000bec565b9050919050565b6000602082019050818103600083015262000e308162000c2e565b9050919050565b6000602082019050818103600083015262000e528162000c96565b9050919050565b6000602082019050818103600083015262000e748162000cfe565b9050919050565b600060208201905062000e92600083018462000d40565b92915050565b6000604051905081810181811067ffffffffffffffff8211171562000ec25762000ec162001188565b5b8060405250919050565b600067ffffffffffffffff82111562000eea5762000ee962001188565b5b602082029050919050565b600067ffffffffffffffff82111562000f135762000f1262001188565b5b602082029050919050565b600067ffffffffffffffff82111562000f3c5762000f3b62001188565b5b602082029050919050565b600067ffffffffffffffff82111562000f655762000f6462001188565b5b601f19601f8301169050602081019050919050565b600067ffffffffffffffff82111562000f985762000f9762001188565b5b601f19601f8301169050602081019050919050565b600082825260208201905092915050565b600062000fcb8262001059565b915062000fd88362001059565b9250827fffffffffffffffffffffffffffffffffffffffffffffffffffffffffffffffff0382111562001010576200100f6200112a565b5b828201905092915050565b6000620010288262001039565b9050919050565b6000819050919050565b600073ffffffffffffffffffffffffffffffffffffffff82169050919050565b6000819050919050565b600060ff82169050919050565b60005b838110156200109057808201518184015260208101905062001073565b83811115620010a0576000848401525b50505050565b60006002820490506001821680620010bf57607f821691505b60208210811415620010d657620010d562001159565b5b50919050565b6000620010e98262001059565b91507fffffffffffffffffffffffffffffffffffffffffffffffffffffffffffffffff8214156200111f576200111e6200112a565b5b600182019050919050565b7f4e487b7100000000000000000000000000000000000000000000000000000000600052601160045260246000fd5b7f4e487b7100000000000000000000000000000000000000000000000000000000600052602260045260246000fd5b7f4e487b7100000000000000000000000000000000000000000000000000000000600052604160045260246000fd5b620011c2816200101b565b8114620011ce57600080fd5b50565b620011dc816200102f565b8114620011e857600080fd5b50565b620011f68162001059565b81146200120257600080fd5b50565b611e3a80620012156000396000f3fe608060405234801561001057600080fd5b50600436106101005760003560e01c80633a5673a411610097578063a9059cbb11610066578063a9059cbb146102d9578063dd62ed3e14610309578063e2f3dce014610339578063f6554c291461035757610100565b80633a5673a41461023d57806370a082311461025b57806395d89b411461028b578063a457c2d7146102a957610100565b80631b8515df116100d35780631b8515df1461018f57806323b872dd146101bf578063313ce567146101ef578063395093511461020d57610100565b806302d05d3f1461010557806306fdde0314610123578063095ea7b31461014157806318160ddd14610171575b600080fd5b61010d610375565b60405161011a9190611a07565b60405180910390f35b61012b610403565b6040516101389190611a07565b60405180910390f35b61015b600480360381019061015691906113d3565b610495565b60405161016891906119a7565b60405180910390f35b6101796104b3565b6040516101869190611b89565b60405180910390f35b6101a960048036038101906101a4919061140f565b6104bd565b6040516101b69190611a07565b60405180910390f35b6101d960048036038101906101d49190611384565b610560565b6040516101e691906119a7565b60405180910390f35b6101f76106de565b6040516102049190611ba4565b60405180910390f35b610227600480360381019061022291906113d3565b6106e7565b60405161023491906119a7565b60405180910390f35b610245610793565b6040516102529190611a07565b60405180910390f35b6102756004803603810190610270919061131f565b610825565b6040516102829190611b89565b60405180910390f35b61029361086d565b6040516102a09190611a07565b60405180910390f35b6102c360048036038101906102be91906113d3565b6108ff565b6040516102d091906119a7565b60405180910390f35b6102f360048036038101906102ee91906113d3565b610a71565b60405161030091906119a7565b60405180910390f35b610323600480360381019061031e9190611348565b610a8f565b6040516103309190611b89565b60405180910390f35b610341610b16565b60405161034e9190611a07565b60405180910390f35b61035f610ba4565b60405161036c9190611985565b60405180910390f35b6006805461038290611d35565b80601f01602080910402602001604051908101604052809291908181526020018280546103ae90611d35565b80156103fb5780601f106103d0576101008083540402835291602001916103fb565b820191906000526020600020905b8154815290600101906020018083116103de57829003601f168201915b505050505081565b60606003805461041290611d35565b80601f016020809104026020016040519081016040528092919081815260200182805461043e90611d35565b801561048b5780601f106104605761010080835404028352916020019161048b565b820191906000526020600020905b81548152906001019060200180831161046e57829003601f168201915b5050505050905090565b60006104a96104a2610ceb565b8484610cf3565b6001905092915050565b6000600254905090565b600781600381106104cd57600080fd5b0160009150905080546104df90611d35565b80601f016020809104026020016040519081016040528092919081815260200182805461050b90611d35565b80156105585780601f1061052d57610100808354040283529160200191610558565b820191906000526020600020905b81548152906001019060200180831161053b57829003601f168201915b505050505081565b600061056d848484610ebe565b81600160008673ffffffffffffffffffffffffffffffffffffffff1673ffffffffffffffffffffffffffffffffffffffff16815260200190815260200160002060006105b7610ceb565b73ffffffffffffffffffffffffffffffffffffffff1673ffffffffffffffffffffffffffffffffffffffff168152602001908152602001600020541015610633576040517f08c379a000000000000000000000000000000000000000000000000000000000815260040161062a90611b09565b60405180910390fd5b6106d38461063f610ceb565b84600160008973ffffffffffffffffffffffffffffffffffffffff1673ffffffffffffffffffffffffffffffffffffffff1681526020019081526020016000206000610689610ceb565b73ffffffffffffffffffffffffffffffffffffffff1673ffffffffffffffffffffffffffffffffffffffff168152602001908152602001600020546106ce9190611c6f565b610cf3565b600190509392505050565b60006012905090565b60006107896106f4610ceb565b848460016000610702610ceb565b73ffffffffffffffffffffffffffffffffffffffff1673ffffffffffffffffffffffffffffffffffffffff16815260200190815260200160002060008873ffffffffffffffffffffffffffffffffffffffff1673ffffffffffffffffffffffffffffffffffffffff168152602001908152602001600020546107849190611c19565b610cf3565b6001905092915050565b6060600680546107a290611d35565b80601f01602080910402602001604051908101604052809291908181526020018280546107ce90611d35565b801561081b5780601f106107f05761010080835404028352916020019161081b565b820191906000526020600020905b8154815290600101906020018083116107fe57829003601f168201915b5050505050905090565b60008060008373ffffffffffffffffffffffffffffffffffffffff1673ffffffffffffffffffffffffffffffffffffffff168152602001908152602001600020549050919050565b60606004805461087c90611d35565b80601f01602080910402602001604051908101604052809291908181526020018280546108a890611d35565b80156108f55780601f106108ca576101008083540402835291602001916108f5565b820191906000526020600020905b8154815290600101906020018083116108d857829003601f168201915b5050505050905090565b6000816001600061090e610ceb565b73ffffffffffffffffffffffffffffffffffffffff1673ffffffffffffffffffffffffffffffffffffffff16815260200190815260200160002060008573ffffffffffffffffffffffffffffffffffffffff1673ffffffffffffffffffffffffffffffffffffffff1681526020019081526020016000205410156109c7576040517f08c379a00000000000000000000000000000000000000000000000000000000081526004016109be90611b69565b60405180910390fd5b610a676109d2610ceb565b8484600160006109e0610ceb565b73ffffffffffffffffffffffffffffffffffffffff1673ffffffffffffffffffffffffffffffffffffffff16815260200190815260200160002060008873ffffffffffffffffffffffffffffffffffffffff1673ffffffffffffffffffffffffffffffffffffffff16815260200190815260200160002054610a629190611c6f565b610cf3565b6001905092915050565b6000610a85610a7e610ceb565b8484610ebe565b6001905092915050565b6000600160008473ffffffffffffffffffffffffffffffffffffffff1673ffffffffffffffffffffffffffffffffffffffff16815260200190815260200160002060008373ffffffffffffffffffffffffffffffffffffffff1673ffffffffffffffffffffffffffffffffffffffff16815260200190815260200160002054905092915050565b60058054610b2390611d35565b80601f0160208091040260200160405190810160405280929190818152602001828054610b4f90611d35565b8015610b9c5780601f10610b7157610100808354040283529160200191610b9c565b820191906000526020600020905b815481529060010190602001808311610b7f57829003601f168201915b505050505081565b610bac6112ce565b6007600380602002604051908101604052809291906000905b82821015610c68578382018054610bdb90611d35565b80601f0160208091040260200160405190810160405280929190818152602001828054610c0790611d35565b8015610c545780601f10610c2957610100808354040283529160200191610c54565b820191906000526020600020905b815481529060010190602001808311610c3757829003601f168201915b505050505081526020019060010190610bc5565b50505050905090565b60006041825114610cb7576040517f08c379a0000000000000000000000000000000000000000000000000000000008152600401610cae90611a69565b60405180910390fd5b60008060006020850151925060408501519150606085015160001a9050610ce08682858561113e565b935050505092915050565b600033905090565b600073ffffffffffffffffffffffffffffffffffffffff168373ffffffffffffffffffffffffffffffffffffffff161415610d63576040517f08c379a0000000000000000000000000000000000000000000000000000000008152600401610d5a90611b49565b60405180910390fd5b600073ffffffffffffffffffffffffffffffffffffffff168273ffffffffffffffffffffffffffffffffffffffff161415610dd3576040517f08c379a0000000000000000000000000000000000000000000000000000000008152600401610dca90611a89565b60405180910390fd5b80600160008573ffffffffffffffffffffffffffffffffffffffff1673ffffffffffffffffffffffffffffffffffffffff16815260200190815260200160002060008473ffffffffffffffffffffffffffffffffffffffff1673ffffffffffffffffffffffffffffffffffffffff168152602001908152602001600020819055508173ffffffffffffffffffffffffffffffffffffffff168373ffffffffffffffffffffffffffffffffffffffff167f8c5be1e5ebec7d5bd14f71427d1e84f3dd0314c0f7b2291e5b200ac8c7c3b92583604051610eb19190611b89565b60405180910390a3505050565b600073ffffffffffffffffffffffffffffffffffffffff168373ffffffffffffffffffffffffffffffffffffffff161415610f2e576040517f08c379a0000000000000000000000000000000000000000000000000000000008152600401610f2590611b29565b60405180910390fd5b600073ffffffffffffffffffffffffffffffffffffffff168273ffffffffffffffffffffffffffffffffffffffff161415610f9e576040517f08c379a0000000000000000000000000000000000000000000000000000000008152600401610f9590611a49565b60405180910390fd5b610fa98383836112c9565b806000808573ffffffffffffffffffffffffffffffffffffffff1673ffffffffffffffffffffffffffffffffffffffff16815260200190815260200160002054101561102a576040517f08c379a000000000000000000000000000000000000000000000000000000000815260040161102190611aa9565b60405180910390fd5b806000808573ffffffffffffffffffffffffffffffffffffffff1673ffffffffffffffffffffffffffffffffffffffff16815260200190815260200160002060008282546110789190611c6f565b92505081905550806000808473ffffffffffffffffffffffffffffffffffffffff1673ffffffffffffffffffffffffffffffffffffffff16815260200190815260200160002060008282546110cd9190611c19565b925050819055508173ffffffffffffffffffffffffffffffffffffffff168373ffffffffffffffffffffffffffffffffffffffff167fddf252ad1be2c89b69c2b068fc378daa952ba7f163c4a11628f55a4df523b3ef836040516111319190611b89565b60405180910390a3505050565b60007f7fffffffffffffffffffffffffffffff5d576e7357a4501ddfe92f46681b20a08260001c11156111a6576040517f08c379a000000000000000000000000000000000000000000000000000000000815260040161119d90611ac9565b60405180910390fd5b601b8460ff1614806111bb5750601c8460ff16145b6111fa576040517f08c379a00000000000000000000000000000000000000000000000000000000081526004016111f190611ae9565b60405180910390fd5b60006001868686866040516000815260200160405260405161121f94939291906119c2565b6020604051602081039080840390855afa158015611241573d6000803e3d6000fd5b505050602060405103519050600073ffffffffffffffffffffffffffffffffffffffff168173ffffffffffffffffffffffffffffffffffffffff1614156112bd576040517f08c379a00000000000000000000000000000000000000000000000000000000081526004016112b490611a29565b60405180910390fd5b80915050949350505050565b505050565b60405180606001604052806003905b60608152602001906001900390816112dd5790505090565b60008135905061130481611dd6565b92915050565b60008135905061131981611ded565b92915050565b60006020828403121561133157600080fd5b600061133f848285016112f5565b91505092915050565b6000806040838503121561135b57600080fd5b6000611369858286016112f5565b925050602061137a858286016112f5565b9150509250929050565b60008060006060848603121561139957600080fd5b60006113a7868287016112f5565b93505060206113b8868287016112f5565b92505060406113c98682870161130a565b9150509250925092565b600080604083850312156113e657600080fd5b60006113f4858286016112f5565b92505060206114058582860161130a565b9150509250929050565b60006020828403121561142157600080fd5b600061142f8482850161130a565b91505092915050565b600061144483836114df565b905092915050565b600061145782611bc9565b6114618185611bec565b93508360208202850161147385611bbf565b8060005b858110156114af57848403895281516114908582611438565b945061149b83611bdf565b925060208a01995050600181019050611477565b50829750879550505050505092915050565b6114ca81611cb5565b82525050565b6114d981611cc1565b82525050565b60006114ea82611bd4565b6114f48185611bf7565b9350611504818560208601611d02565b61150d81611dc5565b840191505092915050565b600061152382611bd4565b61152d8185611c08565b935061153d818560208601611d02565b61154681611dc5565b840191505092915050565b600061155e601883611c08565b91507f45434453413a20696e76616c6964207369676e617475726500000000000000006000830152602082019050919050565b600061159e602383611c08565b91507f45524332303a207472616e7366657220746f20746865207a65726f206164647260008301527f65737300000000000000000000000000000000000000000000000000000000006020830152604082019050919050565b6000611604601f83611c08565b91507f45434453413a20696e76616c6964207369676e6174757265206c656e677468006000830152602082019050919050565b6000611644602283611c08565b91507f45524332303a20617070726f766520746f20746865207a65726f20616464726560008301527f73730000000000000000000000000000000000000000000000000000000000006020830152604082019050919050565b60006116aa602683611c08565b91507f45524332303a207472616e7366657220616d6f756e742065786365656473206260008301527f616c616e636500000000000000000000000000000000000000000000000000006020830152604082019050919050565b6000611710602283611c08565b91507f45434453413a20696e76616c6964207369676e6174757265202773272076616c60008301527f75650000000000000000000000000000000000000000000000000000000000006020830152604082019050919050565b6000611776602283611c08565b91507f45434453413a20696e76616c6964207369676e6174757265202776272076616c60008301527f75650000000000000000000000000000000000000000000000000000000000006020830152604082019050919050565b60006117dc602883611c08565b91507f45524332303a207472616e7366657220616d6f756e742065786365656473206160008301527f6c6c6f77616e63650000000000000000000000000000000000000000000000006020830152604082019050919050565b6000611842602583611c08565b91507f45524332303a207472616e736665722066726f6d20746865207a65726f20616460008301527f64726573730000000000000000000000000000000000000000000000000000006020830152604082019050919050565b60006118a8602483611c08565b91507f45524332303a20617070726f76652066726f6d20746865207a65726f2061646460008301527f72657373000000000000000000000000000000000000000000000000000000006020830152604082019050919050565b600061190e602583611c08565b91507f45524332303a2064656372656173656420616c6c6f77616e63652062656c6f7760008301527f207a65726f0000000000000000000000000000000000000000000000000000006020830152604082019050919050565b61197081611ceb565b82525050565b61197f81611cf5565b82525050565b6000602082019050818103600083015261199f818461144c565b905092915050565b60006020820190506119bc60008301846114c1565b92915050565b60006080820190506119d760008301876114d0565b6119e46020830186611976565b6119f160408301856114d0565b6119fe60608301846114d0565b95945050505050565b60006020820190508181036000830152611a218184611518565b905092915050565b60006020820190508181036000830152611a4281611551565b9050919050565b60006020820190508181036000830152611a6281611591565b9050919050565b60006020820190508181036000830152611a82816115f7565b9050919050565b60006020820190508181036000830152611aa281611637565b9050919050565b60006020820190508181036000830152611ac28161169d565b9050919050565b60006020820190508181036000830152611ae281611703565b9050919050565b60006020820190508181036000830152611b0281611769565b9050919050565b60006020820190508181036000830152611b22816117cf565b9050919050565b60006020820190508181036000830152611b4281611835565b9050919050565b60006020820190508181036000830152611b628161189b565b9050919050565b60006020820190508181036000830152611b8281611901565b9050919050565b6000602082019050611b9e6000830184611967565b92915050565b6000602082019050611bb96000830184611976565b92915050565b6000819050919050565b600060039050919050565b600081519050919050565b6000602082019050919050565b600081905092915050565b600082825260208201905092915050565b600082825260208201905092915050565b6000611c2482611ceb565b9150611c2f83611ceb565b9250827fffffffffffffffffffffffffffffffffffffffffffffffffffffffffffffffff03821115611c6457611c63611d67565b5b828201905092915050565b6000611c7a82611ceb565b9150611c8583611ceb565b925082821015611c9857611c97611d67565b5b828203905092915050565b6000611cae82611ccb565b9050919050565b60008115159050919050565b6000819050919050565b600073ffffffffffffffffffffffffffffffffffffffff82169050919050565b6000819050919050565b600060ff82169050919050565b60005b83811015611d20578082015181840152602081019050611d05565b83811115611d2f576000848401525b50505050565b60006002820490506001821680611d4d57607f821691505b60208210811415611d6157611d60611d96565b5b50919050565b7f4e487b7100000000000000000000000000000000000000000000000000000000600052601160045260246000fd5b7f4e487b7100000000000000000000000000000000000000000000000000000000600052602260045260246000fd5b6000601f19601f8301169050919050565b611ddf81611ca3565b8114611dea57600080fd5b50565b611df681611ceb565b8114611e0157600080fd5b5056fea2646970667358221220b9d485998e07b3e6a6d020bee1dba92fe55f31ba0d847abe37a83445a627d47e64736f6c63430008000033a264697066735822122098b8106f329141b60081f713eaa7215963fc5f117e2d735649cc3deffb1ce01864736f6c63430008000033",
  "immutableReferences": {},
  "source": "// SPDX-License-Identifier: UNLICENSED\npragma solidity ^0.8.0;\n\nimport \"./TWM.sol\";\n\ncontract TokenFactory {\n  address[] tokens;\n  event CreateToken(address, string, string[3]); // token address, creator did, witness dids\n\n  function createToken(\n    string memory name,\n    string memory symbol,\n    uint256 totalSupply,\n    string memory _docId,\n    bytes32 _docIdHash,\n    string memory _creatorDid,\n    string[3] memory _witnessDids,\n    bytes[3] memory _witnessSigs,\n    address[3] memory _witnessAddresses\n  ) external {\n    TokenWithManifesto newTWM =\n      new TokenWithManifesto(\n        name,\n        symbol,\n        totalSupply,\n        _docId,\n        _docIdHash,\n        _creatorDid,\n        _witnessDids,\n        _witnessSigs,\n        _witnessAddresses\n      );\n\n    tokens.push(address(newTWM));\n    emit CreateToken(address(newTWM), _creatorDid, _witnessDids);\n  }\n\n  function tokensCount() external view returns (uint256) {\n    return tokens.length;\n  }\n}\n",
  "sourcePath": "/Users/takasetoshiaki/token-with-manifesto/contract/contracts/TokenFactory.sol",
  "compiler": {
    "name": "solc",
    "version": "0.8.0+commit.c7dfd78e.Emscripten.clang"
  },
  "schemaVersion": "3.3.2",
  "updatedAt": "2021-02-09T02:05:59.441Z",
  "networkType": "ethereum",
  "devdoc": {
    "kind": "dev",
    "methods": {},
    "version": 1
  },
  "userdoc": {
    "kind": "user",
    "methods": {},
    "version": 1
  }
}