{
  "contractName": "TokenWithManifesto",
  "abi": [
    {
      "inputs": [
        {
          "internalType": "string",
          "name": "name",
          "type": "string"
        },
        {
          "internalType": "string",
          "name": "symbol",
          "type": "string"
        },
        {
          "internalType": "uint256",
          "name": "totalSupply",
          "type": "uint256"
        },
        {
          "internalType": "string",
          "name": "_docId",
          "type": "string"
        },
        {
          "internalType": "bytes32",
          "name": "_docIdHash",
          "type": "bytes32"
        },
        {
          "internalType": "string",
          "name": "_creatorDid",
          "type": "string"
        },
        {
          "internalType": "string[3]",
          "name": "_witnessDids",
          "type": "string[3]"
        },
        {
          "internalType": "bytes[3]",
          "name": "_witnessSigs",
          "type": "bytes[3]"
        },
        {
          "internalType": "address[3]",
          "name": "_witnessAddresses",
          "type": "address[3]"
        },
        {
          "internalType": "address",
          "name": "creatorAddress",
          "type": "address"
        }
      ],
      "stateMutability": "nonpayable",
      "type": "constructor"
    },
    {
      "anonymous": false,
      "inputs": [
        {
          "indexed": true,
          "internalType": "address",
          "name": "owner",
          "type": "address"
        },
        {
          "indexed": true,
          "internalType": "address",
          "name": "spender",
          "type": "address"
        },
        {
          "indexed": false,
          "internalType": "uint256",
          "name": "value",
          "type": "uint256"
        }
      ],
      "name": "Approval",
      "type": "event"
    },
    {
      "anonymous": false,
      "inputs": [
        {
          "indexed": true,
          "internalType": "address",
          "name": "from",
          "type": "address"
        },
        {
          "indexed": true,
          "internalType": "address",
          "name": "to",
          "type": "address"
        },
        {
          "indexed": false,
          "internalType": "uint256",
          "name": "value",
          "type": "uint256"
        }
      ],
      "name": "Transfer",
      "type": "event"
    },
    {
      "inputs": [
        {
          "internalType": "address",
          "name": "owner",
          "type": "address"
        },
        {
          "internalType": "address",
          "name": "spender",
          "type": "address"
        }
      ],
      "name": "allowance",
      "outputs": [
        {
          "internalType": "uint256",
          "name": "",
          "type": "uint256"
        }
      ],
      "stateMutability": "view",
      "type": "function"
    },
    {
      "inputs": [
        {
          "internalType": "address",
          "name": "spender",
          "type": "address"
        },
        {
          "internalType": "uint256",
          "name": "amount",
          "type": "uint256"
        }
      ],
      "name": "approve",
      "outputs": [
        {
          "internalType": "bool",
          "name": "",
          "type": "bool"
        }
      ],
      "stateMutability": "nonpayable",
      "type": "function"
    },
    {
      "inputs": [
        {
          "internalType": "address",
          "name": "account",
          "type": "address"
        }
      ],
      "name": "balanceOf",
      "outputs": [
        {
          "internalType": "uint256",
          "name": "",
          "type": "uint256"
        }
      ],
      "stateMutability": "view",
      "type": "function"
    },
    {
      "inputs": [],
      "name": "creator",
      "outputs": [
        {
          "internalType": "string",
          "name": "",
          "type": "string"
        }
      ],
      "stateMutability": "view",
      "type": "function"
    },
    {
      "inputs": [],
      "name": "decimals",
      "outputs": [
        {
          "internalType": "uint8",
          "name": "",
          "type": "uint8"
        }
      ],
      "stateMutability": "view",
      "type": "function"
    },
    {
      "inputs": [
        {
          "internalType": "address",
          "name": "spender",
          "type": "address"
        },
        {
          "internalType": "uint256",
          "name": "subtractedValue",
          "type": "uint256"
        }
      ],
      "name": "decreaseAllowance",
      "outputs": [
        {
          "internalType": "bool",
          "name": "",
          "type": "bool"
        }
      ],
      "stateMutability": "nonpayable",
      "type": "function"
    },
    {
      "inputs": [
        {
          "internalType": "address",
          "name": "spender",
          "type": "address"
        },
        {
          "internalType": "uint256",
          "name": "addedValue",
          "type": "uint256"
        }
      ],
      "name": "increaseAllowance",
      "outputs": [
        {
          "internalType": "bool",
          "name": "",
          "type": "bool"
        }
      ],
      "stateMutability": "nonpayable",
      "type": "function"
    },
    {
      "inputs": [],
      "name": "manifesto",
      "outputs": [
        {
          "internalType": "string",
          "name": "",
          "type": "string"
        }
      ],
      "stateMutability": "view",
      "type": "function"
    },
    {
      "inputs": [],
      "name": "name",
      "outputs": [
        {
          "internalType": "string",
          "name": "",
          "type": "string"
        }
      ],
      "stateMutability": "view",
      "type": "function"
    },
    {
      "inputs": [],
      "name": "symbol",
      "outputs": [
        {
          "internalType": "string",
          "name": "",
          "type": "string"
        }
      ],
      "stateMutability": "view",
      "type": "function"
    },
    {
      "inputs": [],
      "name": "totalSupply",
      "outputs": [
        {
          "internalType": "uint256",
          "name": "",
          "type": "uint256"
        }
      ],
      "stateMutability": "view",
      "type": "function"
    },
    {
      "inputs": [
        {
          "internalType": "address",
          "name": "recipient",
          "type": "address"
        },
        {
          "internalType": "uint256",
          "name": "amount",
          "type": "uint256"
        }
      ],
      "name": "transfer",
      "outputs": [
        {
          "internalType": "bool",
          "name": "",
          "type": "bool"
        }
      ],
      "stateMutability": "nonpayable",
      "type": "function"
    },
    {
      "inputs": [
        {
          "internalType": "address",
          "name": "sender",
          "type": "address"
        },
        {
          "internalType": "address",
          "name": "recipient",
          "type": "address"
        },
        {
          "internalType": "uint256",
          "name": "amount",
          "type": "uint256"
        }
      ],
      "name": "transferFrom",
      "outputs": [
        {
          "internalType": "bool",
          "name": "",
          "type": "bool"
        }
      ],
      "stateMutability": "nonpayable",
      "type": "function"
    },
    {
      "inputs": [
        {
          "internalType": "uint256",
          "name": "",
          "type": "uint256"
        }
      ],
      "name": "witnessDids",
      "outputs": [
        {
          "internalType": "string",
          "name": "",
          "type": "string"
        }
      ],
      "stateMutability": "view",
      "type": "function"
    },
    {
      "inputs": [],
      "name": "createdBy",
      "outputs": [
        {
          "internalType": "string",
          "name": "",
          "type": "string"
        }
      ],
      "stateMutability": "view",
      "type": "function"
    },
    {
      "inputs": [],
      "name": "signedBy",
      "outputs": [
        {
          "internalType": "string[3]",
          "name": "",
          "type": "string[3]"
        }
      ],
      "stateMutability": "view",
      "type": "function"
    }
  ],
  "bytecode": "0x60806040523480156200001157600080fd5b5060405162003067380380620030678339818101604052810190620000379190620009e9565b8989816003908051906020019062000051929190620005a6565b5080600490805190602001906200006a929190620005a6565b5050506200008186858585620000e960201b60201c565b866005908051906020019062000099929190620005a6565b508460069080519060200190620000b2929190620005a6565b50836007906003620000c692919062000637565b50620000d981896200021f60201b60201c565b505050505050505050506200121d565b60005b6003811015620002185760006200015084836003811062000136577f4e487b7100000000000000000000000000000000000000000000000000000000600052603260045260246000fd5b6020020151876200038460201b62000c711790919060201c565b90508282600381106200018c577f4e487b7100000000000000000000000000000000000000000000000000000000600052603260045260246000fd5b602002015173ffffffffffffffffffffffffffffffffffffffff168173ffffffffffffffffffffffffffffffffffffffff161462000201576040517f08c379a0000000000000000000000000000000000000000000000000000000008152600401620001f89062000e0b565b60405180910390fd5b5080806200020f90620010f4565b915050620000ec565b5050505050565b600073ffffffffffffffffffffffffffffffffffffffff168273ffffffffffffffffffffffffffffffffffffffff16141562000292576040517f08c379a0000000000000000000000000000000000000000000000000000000008152600401620002899062000e71565b60405180910390fd5b620002a6600083836200040960201b60201c565b8060026000828254620002ba919062000fd6565b92505081905550806000808473ffffffffffffffffffffffffffffffffffffffff1673ffffffffffffffffffffffffffffffffffffffff168152602001908152602001600020600082825462000311919062000fd6565b925050819055508173ffffffffffffffffffffffffffffffffffffffff16600073ffffffffffffffffffffffffffffffffffffffff167fddf252ad1be2c89b69c2b068fc378daa952ba7f163c4a11628f55a4df523b3ef8360405162000378919062000e93565b60405180910390a35050565b60006041825114620003cd576040517f08c379a0000000000000000000000000000000000000000000000000000000008152600401620003c49062000de9565b60405180910390fd5b60008060006020850151925060408501519150606085015160001a9050620003fe868285856200040e60201b60201c565b935050505092915050565b505050565b60007f7fffffffffffffffffffffffffffffff5d576e7357a4501ddfe92f46681b20a08260001c111562000479576040517f08c379a0000000000000000000000000000000000000000000000000000000008152600401620004709062000e2d565b60405180910390fd5b601b8460ff1614806200048f5750601c8460ff16145b620004d1576040517f08c379a0000000000000000000000000000000000000000000000000000000008152600401620004c89062000e4f565b60405180910390fd5b600060018686868660405160008152602001604052604051620004f8949392919062000d7a565b6020604051602081039080840390855afa1580156200051b573d6000803e3d6000fd5b505050602060405103519050600073ffffffffffffffffffffffffffffffffffffffff168173ffffffffffffffffffffffffffffffffffffffff1614156200059a576040517f08c379a0000000000000000000000000000000000000000000000000000000008152600401620005919062000dc7565b60405180910390fd5b80915050949350505050565b828054620005b490620010be565b90600052602060002090601f016020900481019282620005d8576000855562000624565b82601f10620005f357805160ff191683800117855562000624565b8280016001018555821562000624579182015b828111156200062357825182559160200191906001019062000606565b5b50905062000633919062000691565b5090565b82600381019282156200067e579160200282015b828111156200067d5782518290805190602001906200066c929190620005a6565b50916020019190600101906200064b565b5b5090506200068d9190620006b0565b5090565b5b80821115620006ac57600081600090555060010162000692565b5090565b5b80821115620006d45760008181620006ca9190620006d8565b50600101620006b1565b5090565b508054620006e690620010be565b6000825580601f10620006fa57506200071b565b601f0160209004906000526020600020908101906200071a919062000691565b5b50565b6000620007356200072f8462000ee4565b62000eb0565b905080828560208602820111156200074c57600080fd5b60005b85811015620007805781620007658882620008cc565b8452602084019350602083019250506001810190506200074f565b5050509392505050565b6000620007a16200079b8462000f0d565b62000eb0565b9050808260005b85811015620007dc5781518501620007c1888262000978565b845260208401935060208301925050600181019050620007a8565b5050509392505050565b6000620007fd620007f78462000f36565b62000eb0565b9050808260005b858110156200083857815185016200081d8882620009a5565b84526020840193506020830192505060018101905062000804565b5050509392505050565b600062000859620008538462000f5f565b62000eb0565b9050828152602081018484840111156200087257600080fd5b6200087f84828562001088565b509392505050565b60006200089e620008988462000f92565b62000eb0565b905082815260208101848484011115620008b757600080fd5b620008c484828562001088565b509392505050565b600081519050620008dd81620011cf565b92915050565b600082601f830112620008f557600080fd5b6003620009048482856200071e565b91505092915050565b600082601f8301126200091f57600080fd5b60036200092e8482856200078a565b91505092915050565b600082601f8301126200094957600080fd5b600362000958848285620007e6565b91505092915050565b6000815190506200097281620011e9565b92915050565b600082601f8301126200098a57600080fd5b81516200099c84826020860162000842565b91505092915050565b600082601f830112620009b757600080fd5b8151620009c984826020860162000887565b91505092915050565b600081519050620009e38162001203565b92915050565b6000806000806000806000806000806101808b8d03121562000a0a57600080fd5b60008b015167ffffffffffffffff81111562000a2557600080fd5b62000a338d828e01620009a5565b9a505060208b015167ffffffffffffffff81111562000a5157600080fd5b62000a5f8d828e01620009a5565b995050604062000a728d828e01620009d2565b98505060608b015167ffffffffffffffff81111562000a9057600080fd5b62000a9e8d828e01620009a5565b975050608062000ab18d828e0162000961565b96505060a08b015167ffffffffffffffff81111562000acf57600080fd5b62000add8d828e01620009a5565b95505060c08b015167ffffffffffffffff81111562000afb57600080fd5b62000b098d828e0162000937565b94505060e08b015167ffffffffffffffff81111562000b2757600080fd5b62000b358d828e016200090d565b93505061010062000b498d828e01620008e3565b92505061016062000b5d8d828e01620008cc565b9150509295989b9194979a5092959850565b62000b7a8162001047565b82525050565b600062000b8f60188362000fc5565b91507f45434453413a20696e76616c6964207369676e617475726500000000000000006000830152602082019050919050565b600062000bd1601f8362000fc5565b91507f45434453413a20696e76616c6964207369676e6174757265206c656e677468006000830152602082019050919050565b600062000c1360118362000fc5565b91507f496e76616c6964207369676e61747572650000000000000000000000000000006000830152602082019050919050565b600062000c5560228362000fc5565b91507f45434453413a20696e76616c6964207369676e6174757265202773272076616c60008301527f75650000000000000000000000000000000000000000000000000000000000006020830152604082019050919050565b600062000cbd60228362000fc5565b91507f45434453413a20696e76616c6964207369676e6174757265202776272076616c60008301527f75650000000000000000000000000000000000000000000000000000000000006020830152604082019050919050565b600062000d25601f8362000fc5565b91507f45524332303a206d696e7420746f20746865207a65726f2061646472657373006000830152602082019050919050565b62000d638162001071565b82525050565b62000d74816200107b565b82525050565b600060808201905062000d91600083018762000b6f565b62000da0602083018662000d69565b62000daf604083018562000b6f565b62000dbe606083018462000b6f565b95945050505050565b6000602082019050818103600083015262000de28162000b80565b9050919050565b6000602082019050818103600083015262000e048162000bc2565b9050919050565b6000602082019050818103600083015262000e268162000c04565b9050919050565b6000602082019050818103600083015262000e488162000c46565b9050919050565b6000602082019050818103600083015262000e6a8162000cae565b9050919050565b6000602082019050818103600083015262000e8c8162000d16565b9050919050565b600060208201905062000eaa600083018462000d58565b92915050565b6000604051905081810181811067ffffffffffffffff8211171562000eda5762000ed9620011a0565b5b8060405250919050565b600067ffffffffffffffff82111562000f025762000f01620011a0565b5b602082029050919050565b600067ffffffffffffffff82111562000f2b5762000f2a620011a0565b5b602082029050919050565b600067ffffffffffffffff82111562000f545762000f53620011a0565b5b602082029050919050565b600067ffffffffffffffff82111562000f7d5762000f7c620011a0565b5b601f19601f8301169050602081019050919050565b600067ffffffffffffffff82111562000fb05762000faf620011a0565b5b601f19601f8301169050602081019050919050565b600082825260208201905092915050565b600062000fe38262001071565b915062000ff08362001071565b9250827fffffffffffffffffffffffffffffffffffffffffffffffffffffffffffffffff0382111562001028576200102762001142565b5b828201905092915050565b6000620010408262001051565b9050919050565b6000819050919050565b600073ffffffffffffffffffffffffffffffffffffffff82169050919050565b6000819050919050565b600060ff82169050919050565b60005b83811015620010a85780820151818401526020810190506200108b565b83811115620010b8576000848401525b50505050565b60006002820490506001821680620010d757607f821691505b60208210811415620010ee57620010ed62001171565b5b50919050565b6000620011018262001071565b91507fffffffffffffffffffffffffffffffffffffffffffffffffffffffffffffffff82141562001137576200113662001142565b5b600182019050919050565b7f4e487b7100000000000000000000000000000000000000000000000000000000600052601160045260246000fd5b7f4e487b7100000000000000000000000000000000000000000000000000000000600052602260045260246000fd5b7f4e487b7100000000000000000000000000000000000000000000000000000000600052604160045260246000fd5b620011da8162001033565b8114620011e657600080fd5b50565b620011f48162001047565b81146200120057600080fd5b50565b6200120e8162001071565b81146200121a57600080fd5b50565b611e3a806200122d6000396000f3fe608060405234801561001057600080fd5b50600436106101005760003560e01c80633a5673a411610097578063a9059cbb11610066578063a9059cbb146102d9578063dd62ed3e14610309578063e2f3dce014610339578063f6554c291461035757610100565b80633a5673a41461023d57806370a082311461025b57806395d89b411461028b578063a457c2d7146102a957610100565b80631b8515df116100d35780631b8515df1461018f57806323b872dd146101bf578063313ce567146101ef578063395093511461020d57610100565b806302d05d3f1461010557806306fdde0314610123578063095ea7b31461014157806318160ddd14610171575b600080fd5b61010d610375565b60405161011a9190611a07565b60405180910390f35b61012b610403565b6040516101389190611a07565b60405180910390f35b61015b600480360381019061015691906113d3565b610495565b60405161016891906119a7565b60405180910390f35b6101796104b3565b6040516101869190611b89565b60405180910390f35b6101a960048036038101906101a4919061140f565b6104bd565b6040516101b69190611a07565b60405180910390f35b6101d960048036038101906101d49190611384565b610560565b6040516101e691906119a7565b60405180910390f35b6101f76106de565b6040516102049190611ba4565b60405180910390f35b610227600480360381019061022291906113d3565b6106e7565b60405161023491906119a7565b60405180910390f35b610245610793565b6040516102529190611a07565b60405180910390f35b6102756004803603810190610270919061131f565b610825565b6040516102829190611b89565b60405180910390f35b61029361086d565b6040516102a09190611a07565b60405180910390f35b6102c360048036038101906102be91906113d3565b6108ff565b6040516102d091906119a7565b60405180910390f35b6102f360048036038101906102ee91906113d3565b610a71565b60405161030091906119a7565b60405180910390f35b610323600480360381019061031e9190611348565b610a8f565b6040516103309190611b89565b60405180910390f35b610341610b16565b60405161034e9190611a07565b60405180910390f35b61035f610ba4565b60405161036c9190611985565b60405180910390f35b6006805461038290611d35565b80601f01602080910402602001604051908101604052809291908181526020018280546103ae90611d35565b80156103fb5780601f106103d0576101008083540402835291602001916103fb565b820191906000526020600020905b8154815290600101906020018083116103de57829003601f168201915b505050505081565b60606003805461041290611d35565b80601f016020809104026020016040519081016040528092919081815260200182805461043e90611d35565b801561048b5780601f106104605761010080835404028352916020019161048b565b820191906000526020600020905b81548152906001019060200180831161046e57829003601f168201915b5050505050905090565b60006104a96104a2610ceb565b8484610cf3565b6001905092915050565b6000600254905090565b600781600381106104cd57600080fd5b0160009150905080546104df90611d35565b80601f016020809104026020016040519081016040528092919081815260200182805461050b90611d35565b80156105585780601f1061052d57610100808354040283529160200191610558565b820191906000526020600020905b81548152906001019060200180831161053b57829003601f168201915b505050505081565b600061056d848484610ebe565b81600160008673ffffffffffffffffffffffffffffffffffffffff1673ffffffffffffffffffffffffffffffffffffffff16815260200190815260200160002060006105b7610ceb565b73ffffffffffffffffffffffffffffffffffffffff1673ffffffffffffffffffffffffffffffffffffffff168152602001908152602001600020541015610633576040517f08c379a000000000000000000000000000000000000000000000000000000000815260040161062a90611b09565b60405180910390fd5b6106d38461063f610ceb565b84600160008973ffffffffffffffffffffffffffffffffffffffff1673ffffffffffffffffffffffffffffffffffffffff1681526020019081526020016000206000610689610ceb565b73ffffffffffffffffffffffffffffffffffffffff1673ffffffffffffffffffffffffffffffffffffffff168152602001908152602001600020546106ce9190611c6f565b610cf3565b600190509392505050565b60006012905090565b60006107896106f4610ceb565b848460016000610702610ceb565b73ffffffffffffffffffffffffffffffffffffffff1673ffffffffffffffffffffffffffffffffffffffff16815260200190815260200160002060008873ffffffffffffffffffffffffffffffffffffffff1673ffffffffffffffffffffffffffffffffffffffff168152602001908152602001600020546107849190611c19565b610cf3565b6001905092915050565b6060600680546107a290611d35565b80601f01602080910402602001604051908101604052809291908181526020018280546107ce90611d35565b801561081b5780601f106107f05761010080835404028352916020019161081b565b820191906000526020600020905b8154815290600101906020018083116107fe57829003601f168201915b5050505050905090565b60008060008373ffffffffffffffffffffffffffffffffffffffff1673ffffffffffffffffffffffffffffffffffffffff168152602001908152602001600020549050919050565b60606004805461087c90611d35565b80601f01602080910402602001604051908101604052809291908181526020018280546108a890611d35565b80156108f55780601f106108ca576101008083540402835291602001916108f5565b820191906000526020600020905b8154815290600101906020018083116108d857829003601f168201915b5050505050905090565b6000816001600061090e610ceb565b73ffffffffffffffffffffffffffffffffffffffff1673ffffffffffffffffffffffffffffffffffffffff16815260200190815260200160002060008573ffffffffffffffffffffffffffffffffffffffff1673ffffffffffffffffffffffffffffffffffffffff1681526020019081526020016000205410156109c7576040517f08c379a00000000000000000000000000000000000000000000000000000000081526004016109be90611b69565b60405180910390fd5b610a676109d2610ceb565b8484600160006109e0610ceb565b73ffffffffffffffffffffffffffffffffffffffff1673ffffffffffffffffffffffffffffffffffffffff16815260200190815260200160002060008873ffffffffffffffffffffffffffffffffffffffff1673ffffffffffffffffffffffffffffffffffffffff16815260200190815260200160002054610a629190611c6f565b610cf3565b6001905092915050565b6000610a85610a7e610ceb565b8484610ebe565b6001905092915050565b6000600160008473ffffffffffffffffffffffffffffffffffffffff1673ffffffffffffffffffffffffffffffffffffffff16815260200190815260200160002060008373ffffffffffffffffffffffffffffffffffffffff1673ffffffffffffffffffffffffffffffffffffffff16815260200190815260200160002054905092915050565b60058054610b2390611d35565b80601f0160208091040260200160405190810160405280929190818152602001828054610b4f90611d35565b8015610b9c5780601f10610b7157610100808354040283529160200191610b9c565b820191906000526020600020905b815481529060010190602001808311610b7f57829003601f168201915b505050505081565b610bac6112ce565b6007600380602002604051908101604052809291906000905b82821015610c68578382018054610bdb90611d35565b80601f0160208091040260200160405190810160405280929190818152602001828054610c0790611d35565b8015610c545780601f10610c2957610100808354040283529160200191610c54565b820191906000526020600020905b815481529060010190602001808311610c3757829003601f168201915b505050505081526020019060010190610bc5565b50505050905090565b60006041825114610cb7576040517f08c379a0000000000000000000000000000000000000000000000000000000008152600401610cae90611a69565b60405180910390fd5b60008060006020850151925060408501519150606085015160001a9050610ce08682858561113e565b935050505092915050565b600033905090565b600073ffffffffffffffffffffffffffffffffffffffff168373ffffffffffffffffffffffffffffffffffffffff161415610d63576040517f08c379a0000000000000000000000000000000000000000000000000000000008152600401610d5a90611b49565b60405180910390fd5b600073ffffffffffffffffffffffffffffffffffffffff168273ffffffffffffffffffffffffffffffffffffffff161415610dd3576040517f08c379a0000000000000000000000000000000000000000000000000000000008152600401610dca90611a89565b60405180910390fd5b80600160008573ffffffffffffffffffffffffffffffffffffffff1673ffffffffffffffffffffffffffffffffffffffff16815260200190815260200160002060008473ffffffffffffffffffffffffffffffffffffffff1673ffffffffffffffffffffffffffffffffffffffff168152602001908152602001600020819055508173ffffffffffffffffffffffffffffffffffffffff168373ffffffffffffffffffffffffffffffffffffffff167f8c5be1e5ebec7d5bd14f71427d1e84f3dd0314c0f7b2291e5b200ac8c7c3b92583604051610eb19190611b89565b60405180910390a3505050565b600073ffffffffffffffffffffffffffffffffffffffff168373ffffffffffffffffffffffffffffffffffffffff161415610f2e576040517f08c379a0000000000000000000000000000000000000000000000000000000008152600401610f2590611b29565b60405180910390fd5b600073ffffffffffffffffffffffffffffffffffffffff168273ffffffffffffffffffffffffffffffffffffffff161415610f9e576040517f08c379a0000000000000000000000000000000000000000000000000000000008152600401610f9590611a49565b60405180910390fd5b610fa98383836112c9565b806000808573ffffffffffffffffffffffffffffffffffffffff1673ffffffffffffffffffffffffffffffffffffffff16815260200190815260200160002054101561102a576040517f08c379a000000000000000000000000000000000000000000000000000000000815260040161102190611aa9565b60405180910390fd5b806000808573ffffffffffffffffffffffffffffffffffffffff1673ffffffffffffffffffffffffffffffffffffffff16815260200190815260200160002060008282546110789190611c6f565b92505081905550806000808473ffffffffffffffffffffffffffffffffffffffff1673ffffffffffffffffffffffffffffffffffffffff16815260200190815260200160002060008282546110cd9190611c19565b925050819055508173ffffffffffffffffffffffffffffffffffffffff168373ffffffffffffffffffffffffffffffffffffffff167fddf252ad1be2c89b69c2b068fc378daa952ba7f163c4a11628f55a4df523b3ef836040516111319190611b89565b60405180910390a3505050565b60007f7fffffffffffffffffffffffffffffff5d576e7357a4501ddfe92f46681b20a08260001c11156111a6576040517f08c379a000000000000000000000000000000000000000000000000000000000815260040161119d90611ac9565b60405180910390fd5b601b8460ff1614806111bb5750601c8460ff16145b6111fa576040517f08c379a00000000000000000000000000000000000000000000000000000000081526004016111f190611ae9565b60405180910390fd5b60006001868686866040516000815260200160405260405161121f94939291906119c2565b6020604051602081039080840390855afa158015611241573d6000803e3d6000fd5b505050602060405103519050600073ffffffffffffffffffffffffffffffffffffffff168173ffffffffffffffffffffffffffffffffffffffff1614156112bd576040517f08c379a00000000000000000000000000000000000000000000000000000000081526004016112b490611a29565b60405180910390fd5b80915050949350505050565b505050565b60405180606001604052806003905b60608152602001906001900390816112dd5790505090565b60008135905061130481611dd6565b92915050565b60008135905061131981611ded565b92915050565b60006020828403121561133157600080fd5b600061133f848285016112f5565b91505092915050565b6000806040838503121561135b57600080fd5b6000611369858286016112f5565b925050602061137a858286016112f5565b9150509250929050565b60008060006060848603121561139957600080fd5b60006113a7868287016112f5565b93505060206113b8868287016112f5565b92505060406113c98682870161130a565b9150509250925092565b600080604083850312156113e657600080fd5b60006113f4858286016112f5565b92505060206114058582860161130a565b9150509250929050565b60006020828403121561142157600080fd5b600061142f8482850161130a565b91505092915050565b600061144483836114df565b905092915050565b600061145782611bc9565b6114618185611bec565b93508360208202850161147385611bbf565b8060005b858110156114af57848403895281516114908582611438565b945061149b83611bdf565b925060208a01995050600181019050611477565b50829750879550505050505092915050565b6114ca81611cb5565b82525050565b6114d981611cc1565b82525050565b60006114ea82611bd4565b6114f48185611bf7565b9350611504818560208601611d02565b61150d81611dc5565b840191505092915050565b600061152382611bd4565b61152d8185611c08565b935061153d818560208601611d02565b61154681611dc5565b840191505092915050565b600061155e601883611c08565b91507f45434453413a20696e76616c6964207369676e617475726500000000000000006000830152602082019050919050565b600061159e602383611c08565b91507f45524332303a207472616e7366657220746f20746865207a65726f206164647260008301527f65737300000000000000000000000000000000000000000000000000000000006020830152604082019050919050565b6000611604601f83611c08565b91507f45434453413a20696e76616c6964207369676e6174757265206c656e677468006000830152602082019050919050565b6000611644602283611c08565b91507f45524332303a20617070726f766520746f20746865207a65726f20616464726560008301527f73730000000000000000000000000000000000000000000000000000000000006020830152604082019050919050565b60006116aa602683611c08565b91507f45524332303a207472616e7366657220616d6f756e742065786365656473206260008301527f616c616e636500000000000000000000000000000000000000000000000000006020830152604082019050919050565b6000611710602283611c08565b91507f45434453413a20696e76616c6964207369676e6174757265202773272076616c60008301527f75650000000000000000000000000000000000000000000000000000000000006020830152604082019050919050565b6000611776602283611c08565b91507f45434453413a20696e76616c6964207369676e6174757265202776272076616c60008301527f75650000000000000000000000000000000000000000000000000000000000006020830152604082019050919050565b60006117dc602883611c08565b91507f45524332303a207472616e7366657220616d6f756e742065786365656473206160008301527f6c6c6f77616e63650000000000000000000000000000000000000000000000006020830152604082019050919050565b6000611842602583611c08565b91507f45524332303a207472616e736665722066726f6d20746865207a65726f20616460008301527f64726573730000000000000000000000000000000000000000000000000000006020830152604082019050919050565b60006118a8602483611c08565b91507f45524332303a20617070726f76652066726f6d20746865207a65726f2061646460008301527f72657373000000000000000000000000000000000000000000000000000000006020830152604082019050919050565b600061190e602583611c08565b91507f45524332303a2064656372656173656420616c6c6f77616e63652062656c6f7760008301527f207a65726f0000000000000000000000000000000000000000000000000000006020830152604082019050919050565b61197081611ceb565b82525050565b61197f81611cf5565b82525050565b6000602082019050818103600083015261199f818461144c565b905092915050565b60006020820190506119bc60008301846114c1565b92915050565b60006080820190506119d760008301876114d0565b6119e46020830186611976565b6119f160408301856114d0565b6119fe60608301846114d0565b95945050505050565b60006020820190508181036000830152611a218184611518565b905092915050565b60006020820190508181036000830152611a4281611551565b9050919050565b60006020820190508181036000830152611a6281611591565b9050919050565b60006020820190508181036000830152611a82816115f7565b9050919050565b60006020820190508181036000830152611aa281611637565b9050919050565b60006020820190508181036000830152611ac28161169d565b9050919050565b60006020820190508181036000830152611ae281611703565b9050919050565b60006020820190508181036000830152611b0281611769565b9050919050565b60006020820190508181036000830152611b22816117cf565b9050919050565b60006020820190508181036000830152611b4281611835565b9050919050565b60006020820190508181036000830152611b628161189b565b9050919050565b60006020820190508181036000830152611b8281611901565b9050919050565b6000602082019050611b9e6000830184611967565b92915050565b6000602082019050611bb96000830184611976565b92915050565b6000819050919050565b600060039050919050565b600081519050919050565b6000602082019050919050565b600081905092915050565b600082825260208201905092915050565b600082825260208201905092915050565b6000611c2482611ceb565b9150611c2f83611ceb565b9250827fffffffffffffffffffffffffffffffffffffffffffffffffffffffffffffffff03821115611c6457611c63611d67565b5b828201905092915050565b6000611c7a82611ceb565b9150611c8583611ceb565b925082821015611c9857611c97611d67565b5b828203905092915050565b6000611cae82611ccb565b9050919050565b60008115159050919050565b6000819050919050565b600073ffffffffffffffffffffffffffffffffffffffff82169050919050565b6000819050919050565b600060ff82169050919050565b60005b83811015611d20578082015181840152602081019050611d05565b83811115611d2f576000848401525b50505050565b60006002820490506001821680611d4d57607f821691505b60208210811415611d6157611d60611d96565b5b50919050565b7f4e487b7100000000000000000000000000000000000000000000000000000000600052601160045260246000fd5b7f4e487b7100000000000000000000000000000000000000000000000000000000600052602260045260246000fd5b6000601f19601f8301169050919050565b611ddf81611ca3565b8114611dea57600080fd5b50565b611df681611ceb565b8114611e0157600080fd5b5056fea26469706673582212208dc2dac5de9342d7b751afb55eb2ee7e460e1dd6bc13b2fa99de9b4ed1d564a564736f6c63430008000033",
  "immutableReferences": {},
  "source": "// SPDX-License-Identifier: UNLICENSED\npragma solidity ^0.8.0;\n\nimport \"./token/ERC20/ERC20.sol\";\nimport \"./cryptography/ECDSA.sol\";\n\ncontract TokenWithManifesto is ERC20 {\n  using ECDSA for bytes32;\n\n  string public manifesto;\n  string public creator;\n  string[3] public witnessDids;\n\n  constructor(\n    string memory name,\n    string memory symbol,\n    uint256 totalSupply,\n    string memory _docId,\n    bytes32 _docIdHash,\n    string memory _creatorDid,\n    string[3] memory _witnessDids,\n    bytes[3] memory _witnessSigs,\n    address[3] memory _witnessAddresses,\n    address creatorAddress\n  ) ERC20(name, symbol) {\n    verifyWitnessSignatures(\n      _docIdHash,\n      _witnessDids,\n      _witnessSigs,\n      _witnessAddresses\n    );\n    manifesto = _docId;\n    creator = _creatorDid;\n    witnessDids = _witnessDids;\n    _mint(creatorAddress, totalSupply);\n  }\n\n  function verifyWitnessSignatures(\n    bytes32 _docIdHash,\n    string[3] memory _witnessDids,\n    bytes[3] memory _witnessSigs,\n    address[3] memory _witnessAddresses\n  ) internal pure {\n    for (uint256 i = 0; i < _witnessDids.length; i++) {\n      address signer = _docIdHash.recover(_witnessSigs[i]);\n      require(signer == _witnessAddresses[i], \"Invalid signature\");\n    }\n  }\n\n  function createdBy() external view returns (string memory) {\n    return creator;\n  }\n\n  function signedBy() external view returns (string[3] memory) {\n    return witnessDids;\n  }\n}\n",
  "sourcePath": "/Users/takasetoshiaki/token-with-manifesto/contract/contracts/TWM.sol",
  "compiler": {
    "name": "solc",
    "version": "0.8.0+commit.c7dfd78e.Emscripten.clang"
  },
  "schemaVersion": "3.3.2",
  "updatedAt": "2021-02-10T16:39:22.938Z",
  "devdoc": {
    "kind": "dev",
    "methods": {
      "allowance(address,address)": {
        "details": "See {IERC20-allowance}."
      },
      "approve(address,uint256)": {
        "details": "See {IERC20-approve}. Requirements: - `spender` cannot be the zero address."
      },
      "balanceOf(address)": {
        "details": "See {IERC20-balanceOf}."
      },
      "decimals()": {
        "details": "Returns the number of decimals used to get its user representation. For example, if `decimals` equals `2`, a balance of `505` tokens should be displayed to a user as `5,05` (`505 / 10 ** 2`). Tokens usually opt for a value of 18, imitating the relationship between Ether and Wei. This is the value {ERC20} uses, unless this function is overloaded; NOTE: This information is only used for _display_ purposes: it in no way affects any of the arithmetic of the contract, including {IERC20-balanceOf} and {IERC20-transfer}."
      },
      "decreaseAllowance(address,uint256)": {
        "details": "Atomically decreases the allowance granted to `spender` by the caller. This is an alternative to {approve} that can be used as a mitigation for problems described in {IERC20-approve}. Emits an {Approval} event indicating the updated allowance. Requirements: - `spender` cannot be the zero address. - `spender` must have allowance for the caller of at least `subtractedValue`."
      },
      "increaseAllowance(address,uint256)": {
        "details": "Atomically increases the allowance granted to `spender` by the caller. This is an alternative to {approve} that can be used as a mitigation for problems described in {IERC20-approve}. Emits an {Approval} event indicating the updated allowance. Requirements: - `spender` cannot be the zero address."
      },
      "name()": {
        "details": "Returns the name of the token."
      },
      "symbol()": {
        "details": "Returns the symbol of the token, usually a shorter version of the name."
      },
      "totalSupply()": {
        "details": "See {IERC20-totalSupply}."
      },
      "transfer(address,uint256)": {
        "details": "See {IERC20-transfer}. Requirements: - `recipient` cannot be the zero address. - the caller must have a balance of at least `amount`."
      },
      "transferFrom(address,address,uint256)": {
        "details": "See {IERC20-transferFrom}. Emits an {Approval} event indicating the updated allowance. This is not required by the EIP. See the note at the beginning of {ERC20}. Requirements: - `sender` and `recipient` cannot be the zero address. - `sender` must have a balance of at least `amount`. - the caller must have allowance for ``sender``'s tokens of at least `amount`."
      }
    },
    "version": 1
  },
  "userdoc": {
    "kind": "user",
    "methods": {},
    "version": 1
  }
}